:020000040800F2
:10000000780B0020D5000008C12B00085D280008EF
:1000100000000000000000000000000000000000E0
:10002000000000000000000000000000893000080F
:100030000000000000000000092C0008D530000876
:10004000E7000008E7000008E7000008E7000008F4
:10005000E7000008E7000008E7000008BB120008FE
:10006000E7000008E7000008E7000008E7000008D4
:10007000E7000008E700000800000000E7000008B3
:1000800000000000E7000008000000000000000081
:10009000E700000800000000A9310008E7000008A0
:1000A000E7000008E7000008E7000008E700000894
:1000B00019370008E7000008E7000008E70000081B
:1000C0000348854600F078FE00480047513F00088D
:1000D000780B00200448804704480047FEE7FEE70D
:1000E000FEE7FEE7FEE7FEE755310008C100000825
:1000F00030B50B46014600202022012409E00D46C0
:10010000D5409D4205D31D469540491B2546954047
:1001100040191546521E002DF1DC30BD70B500248B
:100120002546002801DA01244042002901DA012590
:100130004942FFF7DDFFAC4200D04042002C00D026
:10014000494270BDF0B51FB40646002082B0054696
:100150004024019100901BE0019922460F46304651
:1001600000F01FFD049A059B801A994110D3104698
:100170001946224600F005FD361A8F4101972246A6
:1001800001200021009F00F0FCFC38184D41009038
:100190002046641E0028DFDC019B00982946324679
:1001A00007B0F0BD03460B439B0703D009E008C925
:1001B000121F08C0042AFAD203E00B780370401C17
:1001C000491C521EF9D27047D2B201E00270401CA5
:1001D000491EFBD270470022F6E710B513460A46C7
:1001E00004461946FFF7F0FF204610BD0FB400B5D6
:1001F0008DB009900B9010A900200091C0430A9087
:1002000000200C9006480690064807906A4609A808
:100210000F9900F0F1FC0DB008BC04B018470000C5
:10022000190C0008390C0008FFB5087889B015468C
:10023000FF2805D0491C2D2804D00022002407E007
:1002400000240BE00122F9E70A235C430419491C4E
:100250000878FF28F8D1002A00D0644200200490DA
:100260002A7801462D2A01D02B2A0FD16D1C2D2A68
:1002700002D00022049209E00122FBE700260A22B4
:1002800033466D1C00F040FC381871412F78FF2F69
:10029000F4D10C9AA218069202460A4304D0FF2316
:1002A000069A9133DA4205DA002109980A4606C017
:1002B0000DB0F0BD0024B74AB54D2646079200F0B8
:1002C0006DFD029006980391002801DA474200E094
:1002D000074639050020AF4A001C514101910090AA
:1002E00012E0F80707D022462B463046079900F067
:1002F000DBFA0646079122462B461046194600F0C7
:10030000D3FA04460D467F10002FEAD10698019BD0
:100310000028009A0399029806DA00F02DFB324675
:10032000079B00F029FB05E000F0BEFA3246079B70
:1003300000F0BAFA049A002A02D00122D2075140F2
:10034000099A03C2B4E7FFB591B0002009900025D7
:10035000ED432E209E685C681F460190B9696D1CB4
:10036000129888470090396A88470028F6D100988B
:10037000401C0AD00D20C0018443002E12DD0098DD
:100380002B2809D02D280DD103E00020C04315B043
:10039000F0BD012080020443B9696D1C12988847A2
:1003A000761E009003A9600501D52D2000E02B20CA
:1003B0006A461073491C0CA80F9102900AE0B969B3
:1003C0006D1C129888470090012040020443139846
:1003D000761E0560002E02DD00983028EFD00199CE
:1003E0000098884246D18020044308E00998401EC6
:1003F00009900120400204431399681C0860B96900
:100400006D1C761E1298884700903028EED031E09F
:100410000199884205D1200603D480200443761E2A
:100420001EE0009803F016FD002826D001204002AF
:10043000044307A90F980331761E88420BD2009817
:100440000F99303808700F98401C0F90200607D580
:100450000998401E03E0200602D40998401C099028
:10046000A00502D51399681C0860B9696D1C129823
:1004700088470090002ECBDC59E0002E57DD009815
:10048000652801D0452852D1A00550D5032000028F
:100490008443B9696D1C761E129888470090002E1F
:1004A0000CDD2B2804D02D2808D1FF200130044377
:1004B000B9696D1C12988847761E0090E00501D539
:1004C0002D2100E02B21029801700298401C02901F
:1004D000019025E00120400204430EA90298013159
:1004E000761E88420ED20098029930380006000E1F
:1004F000087003D10299019881420AD90298401CE0
:10050000029006E0E00501D5234801E02248404280
:100510000990B9696D1C129888470090139805607E
:10052000002E04DD009803F095FC0028D2D1F96973
:10053000129888470F99FF200870029903AA087043
:1005400000200A900B900CA90AA8099BFFF76CFEEB
:10055000A00502D40120C04319E72420044209D099
:10056000E00713D138680B9A0A99031D3B600068B5
:1005700006C00BE00B990A9800F0AAFA0146E007C2
:1005800004D13868021D3A60006801602846FEE622
:10059000000014400000F03FF1D8FFFFF8B502461C
:1005A0004A40D40F42004B0052085B089A4202D2E4
:1005B0000246084611464A0023D0C30D4A00DDB268
:1005C000120EAD1A202D35DA49020126490AF60528
:1005D0008A19002C00D0524220214F1B1146B940ED
:1005E0002A411018C20D9A4221D0002C17D0012D9B
:1005F00008DCDA05801AD20F8019D207DBB200F0CE
:1006000035FBF8BDDA05801A012340001B06C0182F
:1006100080185A428018CA0F1043490007E0490861
:10062000C2071143DA05801A80194008801800F0CB
:1006300015FBF8BD61000122511A001BF7E70122EA
:10064000D2075140AAE70122D2075040A6E702464E
:1006500070B54A40D30FDB0740002DD04A002AD0A6
:10066000010E140E000212020919400A520A8418DF
:10067000E50104465443000A120A2E045043A4190B
:100680004219200CC543AA18120C0125AD03521CB7
:10069000521912047F39240400D0521C104301D493
:1006A0004000491EC2B20C06C0092018401C400878
:1006B000802A02D003E0002070BD400840000029DD
:1006C00000DA0020184370BD70B502464A40D50FCD
:1006D00040004A00ED0740085208002814D0002AC4
:1006E00012D0C40DD30D41020120C0055202490AA7
:1006F000520AE41A091812187D34914201D3641C7D
:1007000000E04900002C01DA002070BD0023914276
:1007100001D3891A0343400849000028F7D1002972
:100720000AD0914202D10121C90705E0914201D2CC
:10073000012101E00121C943E005C018401900F082
:100740008DFA70BDF0B507460846584087B0C00F17
:10075000049048000E46590040084908BC1A8841D8
:1007600005D2384631461E4617460B46024658000B
:10077000400810434CD0300D039040055900400D07
:10078000490D0590401A0290402872DA18030121A1
:10079000000B09050843019004980092002805D039
:1007A0000199524200208841009201900298402114
:1007B0000A1A0199009800F0E4F905460C466B46C8
:1007C00007CB00F0FFF9C0197141039A0E0D002309
:1007D000D71756401A467A40164344D0049A002A46
:1007E0002DD0029A012A039A15DC1205C01A9141F4
:1007F00001263605001C7141D20F059ED2070093D9
:10080000019202962A46234600F076FA07B0F0BD20
:1008100038463146FAE71605224A0F46B218C01A82
:10082000B74101210905001C4F4100187F411146C5
:1008300018187941E20F10436D19644113E0E20783
:100840006D0815436408C2071443039A0126120574
:10085000C01A91413605001C7141CE074008304353
:100860004908C01851412A46234600F038FACDE71E
:10087000FFE7049801224000C117121A00238B41A0
:1008800004983146C417381AA141EEE730B4012468
:10089000E407634030BC55E730B40124E40761400D
:1008A00030BC4FE70000E0FFF0B51FB488B00B99F3
:1008B0000998002448400999C00F49004908099146
:1008C000C0070B990090490049080B9109990898B5
:1008D000A64608431CD00B990A98084318D00998DB
:1008E00001244000420D4800410D099824050003F1
:1008F000000B204309900B980003000B20430B9042
:1009000050181C494018002201901446104605E07A
:10091000002001460DB0F0BD032801DA034600E0D7
:1009200003239C46C11A0AAE0AE05F0008ADED5BE6
:100930004F00F75B7D430027AA187C41491C5B1ED2
:100940006145F2DD410004AB5A522104120C0A4306
:10095000240C401C0828DFDB0198029000997046A7
:1009600001910090059B049A0799069800F0C4F93C
:10097000D0E700000DFCFFFFF0B50C465C4085B0F1
:10098000E40FE40703944C000026640859009446E1
:10099000490802460296224321D062460A431ED0ED
:1009A0006200570D4A000E032303550D0124024631
:1009B0002C492405781B1B0B360B40182343264378
:1009C000614600901C46501AB44103D30098401C65
:1009D000009002E0921800985B41002803DA0020A2
:1009E000014605B0F0BD00200121090507468646F5
:1009F00011E064461D46141BB54106D36546521BE3
:100A0000B341744607430C43A646CD074008490846
:100A1000284392185B4105460D43EAD1104618431E
:100A200013D06046194650407140084306D06046D6
:100A3000101AB34106D20122002306E0002201234E
:100A4000DB0702E00122D2435310009874460105EF
:100A5000381C6141029C039D0019694100F03FF977
:100A6000BFE70000FD03000010B5002296231146E9
:100A700000F0FCF810BDC20F410040020123400A03
:100A8000DB05D207090EC0187F2901DA0020704764
:100A9000962903DC9623591AC84001E0963988400C
:100AA000002AF4D040427047C20FD20740004008ED
:100AB0000BD0C10D0723DB01C91840020905400A0C
:100AC0001143C20840071143704700200146704798
:100AD000CB0FDB07490010B5490802460A4307D08F
:100AE0000A0D07240903E401090B121B002A01DC8B
:100AF000002010BDC900440F0C43C100E018D2050E
:100B0000801800F0ABF810BDF0B51FB486B000201F
:100B10000090019002900698069980B20490079880
:100B2000090C02040014114307900027089D09983E
:100B300006913E463C4603900398A9B20204000C7D
:100B4000039004982D0C154348430021224600F0E1
:100B500018F8C719714110340E46402CECDB3846AA
:100B6000029A00F00EF8009A019B801800905941FB
:100B700002980191103002904028CCDB00980BB015
:100B8000F0BD10B5202A04DB0146203A9140002038
:100B900010BD914020239C1A0346E3401943904026
:100BA00010BD10B5202A04DB0846203AD0400021B1
:100BB00010BD0B46D340D0402024A21A91400843D8
:100BC000194610BD10B5202A06DBCB170846203A7F
:100BD0001041C1170B4306E00B461341D0402024BF
:100BE000A21A91400843194610BD0000026813780C
:100BF000511801601846704710B5D1600449516121
:100C00000449116200211161114600F0EFF810BD96
:100C1000ED0B0008DD0D00084268002A08D00168CD
:100C20000B78491C002B03D0521E06C01846704793
:100C30000121C160881E70474268002A0BD0C3683A
:100C40000168002B07D183688B4204D0491E521CD7
:100C500006C0002070470020C0437047002904DA16
:100C6000401C490001D140084000704770B4002486
:100C7000050C05D11024000402D1002921D0112433
:100C8000050E01D100020834050F01D10001241D19
:100C9000850F01D18000A41C002801DB4000641CEA
:100CA000002908D020252E1B0D46F540A14000D07C
:100CB00001212943084301061B1B000ADB1D02D545
:100CC000002070BC7047DB05181880180029F8DA7E
:100CD000401C4900F5D170BC40084000704710B579
:100CE000002B08DA0024401C614192185B411A4332
:100CF00001D14008400010BDF0B51FB482B00546D8
:100D00000C0003D0084602F00FFD02E002F00CFDDB
:100D100020300246009021462846FFF732FF049B10
:100D2000059A04460F4618431143084314D0184649
:100D300010431BD0009840210A1A18460599FFF766
:100D400030FF05460E46009A05990498FFF719FFF3
:100D5000084305D0012004E02046394607B0F0BD25
:100D60000020C11705430E432C43374300990E98CA
:100D70006305401A7905E40A00220C43FD0A0A3093
:100D800002D500200146E9E70105101969410C9CD4
:100D90000D9D00196941FFF7A2FFDFE70EB5054A77
:100DA00002920022009213460192FFF7A5FF03B0C2
:100DB00000BD000033040000064C0125064E05E08E
:100DC000E36807CC2B430C3C98471034B442F7D36C
:100DD000FFF77AF9584700087847000810B50F2147
:100DE000C0B2490200F0FAF910BD0000F3B58DB0B1
:100DF00000200A9001200B90002608460C300C467B
:100E000009906269012109989047051E2ED0252D71
:100E10002DD0216A8847002818D0626901210998DD
:100E20009047216A88470028F7D1411E62690998D6
:100E3000904700E0761CA1690D988847216A884791
:100E40000028F7D1E1690D988847DAE7A1690D9884
:100E500088470746A84201D1761CD2E7E1690D9880
:100E600088477F1C02D10A98002877D049E10027E3
:100E700062693D463946099890472A280CD1626933
:100E8000012109989047012506E00A214F433F18A8
:100E9000303FEBD410200543626901210998904747
:100EA000014630390A2903D29B498F42DEDCECE748
:100EB000E90600D4994F6C280AD04C2810D0682835
:100EC00024D06A282ED074280CD07A280AD00DE0BD
:100ED00062690121099890476C2823D004211CE005
:100EE000202005436269012109989047A760656049
:100EF00065284FD026DC582839D01ADC452849D03F
:100F000012DC252834D04128B0D143E062690121A8
:100F100009989047682802D008210D43E6E7012090
:100F2000C002DEE70220DCE7462833D047282CD178
:100F300030E05B2870D061282CD063286CD0642806
:100F400023D161E06F284FD009DC662822D06728C2
:100F500020D0692826D06E2817D12EE0CDE0702849
:100F60004DD073286FD075284ED078280DD154E01D
:100F7000A1690D9888470546252800D16CE7E169ED
:100F80000D9888476D1C00D16DE7BAE00A224CE04D
:100F90000A2252E0012023466A46C0430D99FFF71A
:100FA000D2F9A3E02846402108436060A807234601
:100FB00001D5002239E000223FE0E80700D020E719
:100FC0002068011D21600068290501D5067018E719
:100FD000290701D5068014E7A90703D5F117066094
:100FE00041600EE706600CE7284640210843606038
:100FF000A807234601D5082217E008221DE048492A
:1010000028460840606016E028464021084360609A
:10101000A8072346BCD5B9E715E028464021084378
:101020006060A80707D5234610220120C0430D9910
:10103000C046C0465AE0234610220120C0430D9905
:10104000C046C04652E000210C910B460091632837
:1010500002D05B2807D043E0E80601D40120A0605D
:10106000012000903CE062690121099890475E28C8
:1010700005D101200C9001466269099890472169C9
:10108000002906D10B4601AA8F00491CD35108291B
:10109000FADB002835D0216900290ED1C117C90E0D
:1010A00009184A11930001AA9A1849094901411ADD
:1010B0000120136888400343136062690121099885
:1010C00090475D28E5D10C98002808D0002001AB9E
:1010D00081005A58401CD2435A500828F8DB01AB13
:1010E00001202246C0430D99C046C04600280ADAB6
:1010F000401C06D10B98002803D00020C0430FB03D
:10110000F0BD0A98FBE7E90702D10A99491C0A9148
:10111000361800200B9074E6CCCCCC0CFFFFFF7F80
:10112000F1F7FFFF70B54B005B0803430BD04B009A
:101130005C0D002633466542B341D417AD1AA34176
:1011400002DB0020014670BD12053018514170BD10
:101150000EB5C217C10F5040CA0740180021054BF9
:101160000293019200910A460B46FFF7C5FD03B0BA
:1011700000BD0000330400000EB5054902910021B6
:1011800000910A460B460191FFF7B6FD03B000BD82
:101190003304000070B5CD0F4A0009030123090B89
:1011A0001B0519430B4BED070024520D9A4201DA3F
:1011B000002070BD074B34339A4203DC9A1AFFF7C4
:1011C000F0FC02E00449511888402C43F1D0404221
:1011D00070BD0000FF030000CDFBFFFF7F2801D999
:1011E000002207E0054B42089A5CC00700D11209B3
:1011F0001207120F0120904008407047184700085E
:10120000044882684168914203D100214160012174
:101210000170704708000020F7B58EB00746002522
:1012200046E00F980C2148430A900F980024800054
:101230000290A800C1190A9A07918958009138585C
:10124000FFF742FAFFF717FC403001B2660003A82F
:1012500081537F2901DD7F2102E0002901DA00218D
:1012600081530299079840580099FFF72DFAFFF72C
:1012700002FC1F21081A01B205A881533F2901DD94
:101280003F2102E0002901DA002181536D1C641C1A
:1012900024B22DB2032CCCDB6C46208A0122218B98
:1012A0006B4607C3E38AE289A18AA08901F0E0FDC9
:1012B00010988542B5DB11B0F0BD10B50120400398
:1012C00000F048F810BD70B50024014620314A797D
:1012D000022A03D00421C163012418E002681368C4
:1012E0000E25AB431360026813685B085B00136054
:1012F000436C1C221340012215469D40036C5D6027
:101300004A7100220A71816B002900D0884720466B
:1013100070BD70B5044600F0EBF80546601C00D0C7
:10132000641C00F0E5F8401BA042FAD370BD000039
:10133000012110B54903884206D1044800F0D2F8D3
:10134000012801D10249487010BD0000000800507A
:101350000800002010B504494A69024202D04861E1
:10136000FFF7E6FF10BD000000040140F8B50023C0
:101370000124A2E027469F403A4070D04D68022DDC
:1013800001D0122D14D1DD08AD002D1800952D6A65
:101390005E07AC46F50E0F26AE46AE406546B54339
:1013A000AC460E697546AE4065462E43009D2E62E2
:1013B0004D68012D05D0022D03D0112D01D0122D25
:1013C00016D185680326AC465D00AE46AE40654644
:1013D000B543AC46CE687546AE4065462E43866042
:1013E00046680D79BE43ED06ED0F9D4035434560DF
:1013F00006685F000325BD40AE46AE430D79B44696
:10140000AE07B60FBE4065462E430660C6687546F9
:10141000AE438D68BD403543C5604D68ED004BD58A
:10142000294D6E6B26436E639E08284DB6007519D4
:10143000AC46AD689E07360F0F27B740BD43052762
:101440003F07B84201D1002715E0214FB84201D132
:10145000012710E01F4FB84202D102270BE02BE01A
:101460001D4FB84201D1032705E01C4FB84201D1FE
:10147000052700E00627B7402F436546AF60184DAB
:101480002E684F689643FF0300D516432E606E68A2
:101490004F689643BF0300D516436E60AE684F6831
:1014A0009643FF0200D51643AE60EE684F68964340
:1014B000BF0200D51643EE605B1C0A681546DD408E
:1014C00000D057E7F8BD00000010024000000140C6
:1014D0000004005000080050000C0050001C005098
:1014E000000401400069084000D00120704700005E
:1014F00001480068704700001400002070B50246E3
:1015000040325378202B1CD11378012B19D00123A2
:10151000137024245470046825689D432560046872
:1015200025681E03B5432560046825680D432560C2
:10153000006801681943016020205070002010707D
:1015400070BD022070BD70B5024640325378202B2A
:101550001BD11378012B18D001241470242353704D
:1015600003681D68A5431D6005682B680F263602B9
:10157000B3430902194329600068016821430160EF
:10158000202050700020107070BD022070BD00003F
:1015900070B5040006D0254640356878002600283E
:1015A00002D005E0012070BD2E70204600F062F9E7
:1015B00024206870206801684908490001600F21F3
:1015C0006068090688432168086121688A680120EB
:1015D000C00382438A60E1680129A16808D0212202
:1015E0009202114322689160E168022902D005E06D
:1015F0000143F7E701212268C902516021684A6866
:101600000F4B1A434A602168CA688243CA60616905
:1016100020690843A169090208432168C860216A5A
:10162000E0690843216808602068016801221143CD
:1016300001606664202068702663AE70002070BD73
:1016400000800002FFB50446002083B025464035E7
:1016500001906A78202A74D122689269D2431204D8
:101660007BD52A78012A78D001222A7024226A7038
:1016700060648F05BF0DE06801280BD00520C00213
:10168000012138188902884321684860FFF730FF3C
:1016900006460CE03248F3E70698401C07D0FFF7F7
:1016A00027FF811B0698814219D8002817D021688E
:1016B000886989698006C00FC906C90F0843EBD045
:1016C00020688069069BC043C006009617D500229B
:1016D0002021204601F020F9002830D107E0202009
:1016E0006870616C014361640020287027E0216804
:1016F0002020C86168700020287007B0F0BD00226B
:101700002021204601F008F9002818D12168102076
:10171000C86121682020C86101990598814214D1CF
:101720002068416801229203114341600096002223
:1017300020212046069B01F0EFF8002802D001206E
:10174000DBE70AE021682020C8610198401C0146BF
:101750000190059881428ED3C1E70220CDE70000B9
:1017600000200002FFB5054604464035687881B088
:10177000202878D12878012875D001202870FFF71B
:10178000B7FE0746012200901923D103204601F03D
:10179000C3F800283CD1212068701020A8700026D2
:1017A000666403986062049860856663618D2F4863
:1017B000FF2903D9FF22228500903BE0618D21851E
:1017C00000903DE02046029901F092F816E001F009
:1017D000F0F800281CD1606A216800788862606A8D
:1017E000401C6062608D401E6085208D401E80B26E
:1017F0002085618D002901D000280CD0608D0A99C8
:1018000000283A462046E2D101F0ADF800281CD06D
:10181000012005B0F0BD00970022802120460A9BE0
:1018200001F07AF80028F3D1608DFF2805D9FF2256
:101830002285009601231B06C4E7608D2085009653
:10184000208D0123C2B25B06BCE721682020C8615D
:1018500021684A68064B1A404A606870AE702E7064
:101860000020D6E7FFE70220D3E700000020008039
:1018700000E800FE10B586B0044614216846FEF765
:10188000AAFC1149206888421BD1104CE16A022051
:101890000143E162E16A01400320059100020090EA
:1018A0001220019001200290032003900420049054
:1018B00069460748FFF75AFDA06B01214905084317
:1018C000A06306B010BD00000054004000100240AC
:1018D0000004005002480168491C01607047000084
:1018E0001400002010B5084800240168402211436C
:1018F0000160204600F00AF8002801D0012401E030
:1019000000F01CF8204610BD0020024070B50546CE
:1019100009487D210024C9000068FEF7E9FB00F0BA
:1019200047FC002801D0012404E000222946501E73
:1019300000F01AF8204670BD180000200448416BE2
:10194000012211434163816B02041143816370479B
:1019500000100240C106C90E0120884001490860FC
:101960007047000000E100E010B501F02BF910BD58
:10197000F8B504460068614D810601D400057DD5A7
:101980005E4E0027403EB06BC00004D4B06B310403
:101990000843B06301275A480168C90511D401689A
:1019A000821511430160FFF7A3FD009005E0FFF7EA
:1019B0009FFD0099401A642844D851480068C0052A
:1019C000F5D5316803200005626801401040884267
:1019D00005D10323A0681B051840884208D0900356
:1019E000800F032804D13068800301D50120F8BDA1
:1019F000286903210904084029D00A40824202D004
:101A00002278920606D4A2680A4082421FD020881B
:101A100000051CD528692A6988430121C9040A43A5
:101A20002A612A698A432A612861C0050FD5FFF718
:101A30005FFD009008E0FFF75BFD0099411A314817
:101A4000814201D90320F8BD28698005F3D561687A
:101A50008803800F032805D13268000582430140C6
:101A60000A43326028690322616812041140084366
:101A70002861002F06D0B16B012000E002E00007D2
:101A80008143B1632078C00705D0E868E168800829
:101A900080000843E8602078800705D5E8680C21BD
:101AA000884321690843E8602078400706D5E86844
:101AB00003218902884361690843E86020780007B0
:101AC00006D5E868032109038843A1690843E86053
:101AD0002078400606D5E868012189068843216AF6
:101AE0000843E8602078000606D5E86803218904E9
:101AF0008843E1690843E8600020F8BD40100240D7
:101B00000070004088130000F8B50E4605007DD037
:101B100053480068C007C00FB0420AD2504801685D
:101B200049084900314301600068C007C00FB04256
:101B300071D128784B4C800705D5E068F0218843A7
:101B4000A9680843E0602878C00752D06868022876
:101B500017D0032818D02168012818D0890500293A
:101B600059DAE168890889000143E160FFF7C0FCA8
:101B700069680746022912D003291CD0012926D002
:101B800033E021688903EAE721688901E7E749072B
:101B9000E5E7FFF7ADFCC11B3348814223D8E0687D
:101BA0000007800F0228F4D123E0FFF7A1FCC11B3E
:101BB0002D48814217D8E0680007800F0328F4D130
:101BC00017E0FFF795FCC11B274881420BD8E0685E
:101BD0000007800F0128F4D10BE0FFF789FCC11B3F
:101BE0002148814201D90320F8BDE0680007800F39
:101BF000F3D11B480168C907C90FB1420DD901686B
:101C00004908490031430160006800E003E0C00773
:101C1000C00FB04201D00120F8BD2878400706D59A
:101C2000E068072109028843E9680843E0602878F2
:101C3000000707D5E0680721C90288432969C90060
:101C40000843E06000F036F8E168084A0906090F29
:101C5000515CC840064908600020FFF757FEF8BDF8
:101C6000002002400010024088130000D045000808
:101C700018000020044805490068C968044A49055D
:101C8000490F515CC8407047180000200010024006
:101C9000E9450008044805490068C968044A890400
:101CA000490F515CC84070471800002000100240E6
:101CB000E945000810B5184AD1680C2008400428EE
:101CC0000BD0082810D00C2810D050680004410F09
:101CD0000120C003491C884010BD1068C00601D512
:101CE0000E4810BD0E4810BD0E4810BD88020E4BA8
:101CF000000F185C0902D368890F491CDB0301D56A
:101D0000084A05E01268D20601D5044A00E0044AF8
:101D10005043FEF7EDF910BD0010024000093D00F0
:101D20000024F40000127A00E0450008FEB505002A
:101D30007ED0FE4CE7680C20E668074001200004D6
:101D400006402878C00747D0082F05D00C2F0AD1AD
:101D500001200004864206D1206880033CD56868D3
:101D60000028E5D038E0012069680004814203D1F1
:101D700021680143216011E0052301221B04920424
:101D80009942216802D111432160F1E7814321602A
:101D90002168014000912068904320606868002815
:101DA0000DD0FFF7A5FB009005E0FFF7A1FB009920
:101DB000401A64287AD820688003F6D50CE0FFF733
:101DC00097FB009005E0FFF793FB0099401A642809
:101DD000F0D820688003F6D42878800755D50923E9
:101DE000E868042F0DD00C2F01D1002E09D0002857
:101DF0003BD02168994301432160FFF779FB0646F8
:101E000027E02168490701D5002891D061681F2289
:101E1000120291432A6912021143616021689943B9
:101E200001432160FFF746FFE16809060A0F00E061
:101E3000B9E1BF49895CC840BE4908600020FFF78E
:101E400065FD002872D120E0FFF752FB801B0228BD
:101E5000B0D820684007F7D560681F210902884381
:101E600029690902084360600FE0206840084000CB
:101E70002060FFF73DFB064604E0FFF739FB801BBF
:101E8000022897D820684007F7D42878C0065FD585
:101E9000002F0CD0E869002849D02068FF210131CB
:101EA00008432060FFF724FB06462DE0E4E02068AD
:101EB000800502D5E8690028A7D06068072149039A
:101EC0008843696A084360606068298C0002000AE0
:101ED000090608436060686A410B0120C003491C81
:101EE0008840E16809060A0F9149895CC840914918
:101EF00008600020FFF70AFD002817D128E0FFF74F
:101F0000F7FA801B0228A3D820688005F7D56068FF
:101F1000072149038843696A084360606068298C27
:101F20000002000A09060843606011E023E121680D
:101F3000FF20013081432160FFF7DAFA064604E012
:101F4000FFF7D6FA801B02289BD820688005F7D4BB
:101F50002878794E000724D568690028306910D0A8
:101F6000012108433061FFF7C3FA009005E0FFF755
:101F7000BFFA0099401A02287ED830698007F6D54A
:101F80000FE0400840003061FFF7B2FA009005E032
:101F9000FFF7AEFA0099401A02286DD83069800721
:101FA000F6D42878400764D500200290A06BC000CA
:101FB00006D4A06B012109070843A0630120029009
:101FC0005E480168C90511D401688215114301609A
:101FD000FFF78EFA009005E0FFF78AFA0099401AA1
:101FE000642849D855480068C005F5D5FF20AA687F
:101FF0000130824203D131690143316111E0012195
:102000008902002A07D005231B029A4203D13269B4
:102010000A433261EFE732698243326130698843B3
:102020003061A86800280ED0FFF762FA009006E041
:10203000FFF75EFA0099411A414881421CD8306985
:102040008005F5D50DE0FFF753FA009006E0FFF7A5
:102050004FFA0099411A3A4881420DD830698005FB
:10206000F5D40298002804D0A16B01200007814319
:10207000A1632878800600E07CE02ED53148A9696C
:102080004314002916D0A26801210A43A260626BA2
:102090000A436263016A19430162FFF729FA06469F
:1020A00004E0FFF725FA801B022863D8A0688007A8
:1020B000F7D512E0A16849084900A160016A994377
:1020C0000162FFF715FA064604E0FFF711FA801BDC
:1020D00002284FD8A0688007F7D4A86A002864D0E7
:1020E0000C2F4DD0012636060228206805D0B043BB
:1020F0002060FFF7FDF905463EE0B0432060FFF7A2
:10210000F7F9074604E0FFF7F3F9C01B022831D8BE
:1021100020688001F7D4296BE86AE2680843696B9C
:10212000FD231B049A43114308430DE000100240B5
:10213000D045000818000020401002400070004008
:102140008813000000000140E060206830432060F8
:10215000FFF7CEF9054604E0FFF7CAF9401B022855
:1021600008D820688001F7D51FE0FFF7C1F9401BB0
:10217000022801D90320FEBD20688001F5D414E0B7
:10218000E06801210904EA6A014091420BD10F2164
:1021900089042A6B0140914205D103218905084039
:1021A000696B884201D00120FEBD0020FEBD000009
:1021B000094910B5401E884201D9012010BD074CC5
:1021C00060610321081F00F0FDFC0020A0610720D2
:1021D0002061002010BD0000FFFFFF0000E000E0D4
:1021E000F0B502462032137E012B15D00127177659
:1021F0000223537605686C68AB687026B4430E689A
:10220000496826438024A34319436E6000688160B7
:10221000577600201076F0BD0220F0BD70B50400A6
:1022200005D025462035687E002802D006E0012032
:1022300070BD00202876204600F00AF8022068765B
:10224000211D206800F0B8FF01206876002070BDD5
:1022500010B50068084988420CD10848416B20221B
:1022600011434163002201211620FFF77DFB162058
:10227000FFF770FB10BD0000001401400010024089
:10228000F8B5054604462035287E012817D00126DA
:102290002E7602206876226890687727FF23B8435D
:1022A0001B02984390600A68502A31D00EDC202A25
:1022B0004BD006DC002A48D0102A3AD145E0022053
:1022C000F8BD302A41D0402A33D136E0602A27D0E9
:1022D000702A12D001200003121A2AD0824228D17B
:1022E000CB684A688968206800F092FF206881689E
:1022F00001229203114381601BE0CB684A68896820
:10230000206800F085FF216888683843886010E005
:10231000CA684968206800F08EFF5021206806E0F6
:10232000CA684968206800F097FF6021206800F0C3
:102330007AFF6E7600202876F8BDCA684968206862
:1023400000F079FF40212068F1E711462068EEE7B0
:10235000704770B50446006801690025C9438907C4
:10236000002915DBC168C943890711D4E91E016141
:1023700001202076206880698007204602D0FFF780
:10238000E7FF04E000F078F8204600F076F82576C4
:1023900020680169C943490717D4C168C94349077F
:1023A00013D40421C943016102202076206880698A
:1023B0008005800F204602D0FFF7CAFF04E000F03E
:1023C0005BF8204600F059F8257620680169C9437A
:1023D000090716D4C168C943090712D40821C943A3
:1023E0000161042020762068C0698007204602D061
:1023F000FFF7AEFF04E000F03FF8204600F03DF8A4
:10240000257620680169C943C90617D4C168C94344
:10241000C90613D41021C943016108202076206821
:10242000C0698005800F204602D0FFF791FF04E0CD
:1024300000F022F8204600F020F825762068016997
:10244000C943C90708D1C168C943C90704D1891E56
:102450000161204600F012F820680169C94349066D
:1024600009D4C168C943490605D44021C943016163
:10247000204600F004F870BD704770477047704701
:1024800070477047F8B502680446D06911689368D0
:1024900005072D0F5BD0DD07ED0FFF2621360E401F
:1024A0002E4367D0C60706D0CE0504D50126166296
:1024B000E26F3243E267870702220426002F06DA22
:1024C000DF0704D027683A62E76F3743E7674707BB
:1024D00006D5DB0704D023681E62E36F1343E3676E
:1024E000020709D520220A402A4305D02368082282
:1024F0001A62E36F1343E367E26F002A2FD080066E
:1025000006D5880604D5216E002901D020468847CB
:10251000E06F21688968490601D4000724D5204668
:1025200000F04CFF20688168490619D58168402277
:1025300091438160E06E002812D020498163E06EF3
:10254000FEF7C1FE00280AD0E06E816B06E085062A
:1025500010D58D060ED5216E1CE020468847F8BDAB
:102560002046FFF78EFFF8BD2046FFF78AFF0020C8
:10257000E067F8BDC50208D55B0206D5012000055D
:1025800010622046FFF77CFFF8BD030605D50B0659
:1025900003D5616E0029E0D1F8BD4006FCD54806A0
:1025A000FAD51368204640218B43136020216167D0
:1025B0000021616600F051F9F8BD0000A933000860
:1025C00010B5040003D0606F002802D007E001209E
:1025D00010BD002170200155204600F027F824206E
:1025E000606720680168490849000160204600F0E2
:1025F0004DFF0128ECD0606A002802D0204600F090
:102600003EFE206841680922D20291434160206861
:1026100081682A2291438160206801680122114368
:102620000160204600F090FE10BD000010B586B09D
:10263000044614216846FDF7CEFD154920688842FE
:1026400023D11448816B0122520411438163C16A72
:1026500001221143C162C06A6946104005900C20F6
:10266000009002200190002002900320039004209B
:10267000049005200007FEF779FE002202211C20AD
:10268000FFF772F91C20FFF765F906B010BD0000D6
:102690000044004000100240F0B5836F202B54D15D
:1026A00000290AD0002A08D08568DC01A54206D19D
:1026B0000369002B03D1CB0701D00120F0BD0346F5
:1026C00060331E7C012E40D001261E7441650146F8
:1026D00040310A834A830022FF260266A54204D1C4
:1026E0000569002D13D11A4D0AE07F27002D09D06E
:1026F00001263607B5420CD10569002D05D03F25CE
:102700008D8307E00569002D01D08F8302E08E8361
:1027100000E08A83C2672221816701688D680126F3
:1027200035438D608168A14202D1016900290AD038
:10273000084901661A7400680168FF2221321143BA
:1027400001600020F0BD0449F3E70220F0BD000065
:10275000FF01000035340008DD330008094910B5D9
:1027600088420DD1084B5868401C5860FEF748FD60
:10277000044859688030411801228038FFF78CFFE7
:1027800010BD0000B004002008000020FFB5044682
:10279000406F83B017460D4620285CD1002D0AD02B
:1027A000002F08D0A168C001814207D1206900280C
:1027B00004D1E80702D0012007B0F0BD2046603008
:1027C0000290007C012846D002980121017400206B
:1027D000E06721206067FEF78BFE264640360190B9
:1027E000378277820120A1680003814202D12069EB
:1027F000002802D02F46002511E000270FE000221C
:102800008021204600F056FF002815D1002F15D05A
:102810002168387888627F1C708A401E7082708AB6
:10282000019B002806980090E9D100224021204613
:1028300000F040FF002808D00320BDE72888216869
:10284000C005C00D8862AD1CE6E7202060670299D4
:1028500000200874B0E70220AEE77047FEE7016889
:102860008A69D243920701D400228A620068816992
:10287000C943C90703D081690122114381617047AF
:10288000F7B5044600680E468069C043C0062BD4E5
:1028900020272546403520688069C043800612D530
:1028A000701CF8D0FEF724FE0299401AB04201D8FD
:1028B000002EF0D1606C384360646F700020A87007
:1028C00028700120FEBD21681020C8612068C76102
:1028D0002046FFF7C4FF20684168044A1140416068
:1028E000606C04210843E7E70020FEBD00E800FE1D
:1028F000F0B50668059C7568064F600D3843854342
:102900008805800D11040843184320430543756072
:10291000F0BD0000FF63FF03F8B51D4617460E46E5
:10292000044609E0681C07D0FEF7E2FD0699401A4C
:10293000A8420BD8002D09D0206881693046884311
:102940000FD00020B842EDD00020F8BD616C2020EF
:1029500001436164403460700020A0702070012049
:10296000F8BD0120EEE770B516460D4604460FE0AF
:10297000324629462046FFF783FF002801D0012078
:1029800070BDFEF7B5FD801BA84208D8002D06D00B
:1029900020688069C0438006EAD4002070BD616C65
:1029A000202001436164403460700020A0702070DA
:1029B000E5E770B516460D46044611E03246294655
:1029C0002046FFF75DFF002801D0012070BD681C84
:1029D00006D0FEF78DFD801BA84208D8002D06D03A
:1029E00020688069C0438007E8D4002070BD616C16
:1029F000202001436164403460700020A07020708A
:102A0000E3E7000000B587B014216846FDF7E3FB5B
:102A10001448C26A04210A43C262C26A0A4005928B
:102A2000C16A01221143C162C16A11400591C26AA3
:102A300002210A43C262C06A084005900803009060
:102A4000094801900020029069460848FEF78EFC74
:102A5000002201210720FEF787FF0720FEF77AFFFB
:102A600007B000BD00100240000011100008005027
:102A700010B50D480B4901600C494160002181608F
:102A80000161416181610122C161C2600162FEF7A1
:102A90007FFD00210448FEF731FD00210248FEF7CA
:102AA00052FD10BD0054004028040020380F3000B3
:102AB00010B586B000240094104801940294039449
:102AC00004940D49059401601F21846041600461F4
:102AD0000B494461C160FFF7A1FB01200003009096
:102AE00069460648FFF7CCFB049404A90348059403
:102AF000FFF776FB06B010BD0014014074040020FF
:102B0000E703000010B510480E490160E1214902B9
:102B1000416000218160C16001618161C1610C225D
:102B2000016242614162FFF74BFD6423072207A166
:102B30000548FFF72BFE0449012280310248FFF7C8
:102B4000ABFD10BD00440040B0040020537461721E
:102B5000740A0D00FFB581B000242CE0002625E0AA
:102B600060438200039800211018B7000090C15103
:102B70000D4616E00B986843810002980818C15969
:102B80000A986043820001981018AA008058FDF747
:102B90005EFD0099C959FDF701FD00996D1CC851F2
:102BA000EDB20A988542E5D3761CF6B20B988642C0
:102BB000D6D3641CE4B204988442CFD305B0F0BDF0
:102BC000704700008307FF22DB0E9A408907090E39
:102BD000994000280BDA0007000F083883080848DE
:102BE0009B001818C36993430B43C3617047830864
:102BF00004489B001B1818689043084318607047EE
:102C000000ED00E000E400E070470000FFB593B085
:102C100014461D4640220E4902A81E9F1D9EFDF728
:102C2000C1FA02951C980C9607900420002F009082
:102C300008D00423019402A8149A1399FFF78AFF7D
:102C400017B0F0BD0190234602A9149A1398F5E736
:102C500090450008FFB593B01C98FDF725FF2D4A5D
:102C60002D4BFDF721FEFDF733FF00210A4602AB95
:102C7000CC17A40F6518AC10AD08AD004D1B240196
:102C8000E418AD006419491C22601029F0DB7F258F
:102C9000ED051195FDF708FF0F46064601F0E2F835
:102CA000FDF716FF04463046394601F061FBFDF79B
:102CB0000FFF169A2902002A04D0012A08D0022AFE
:102CC00013D10CE041400295079408910B9004E069
:102CD00004900795484002940A900C9405E00294F1
:102CE00041400C950794039106901D9904200029FA
:102CF0000AD0159900900191042302A8149A1399FF
:102D0000FFF728FF17B0F0BD0090019013A80DC881
:102D100002A9F5E74DC9077746DF913FF0B587B0C7
:102D20001D4614460E460746802800D37F27802C78
:102D300000D37F24402E00D33F26402D00D33F25D3
:102D4000A74201D2E01B00E0381B00B20290AE4265
:102D500001D2A81B00E0701B00B200900020C0430D
:102D6000A74201D2012100E001460691AE4200D205
:102D70000120059000990298884200DC4842C10F6A
:102D80000818401000B201900298002825D0009841
:102D9000002837D0029840420490314638460C9AB9
:102DA00000F044F8A74201D1AE4229D0049901981D
:102DB000884206DD009A811A09B2019106997918B4
:102DC0008FB200998842E8DA02990198401800B25F
:102DD00001900598301886B2DFE7B54202D2284646
:102DE000354686B2BC4200D2A7B234B206E0A1B2E8
:102DF00038460C9A00F01AF8641C24B2AC42F6DD96
:102E000007B0F0BDB54200D2AEB2BC4202D22046FD
:102E10003C4687B23DB206E0A8B231460C9A00F0BB
:102E200005F86D1C2DB2A542F6DDE9E770B58028E6
:102E300015D2402913D24D0701246D0F0A4BAC4027
:102E4000C9081E79C901094B0818002E02D0002AB2
:102E500006D001E0012A03D0195CA143195470BDCA
:102E6000195C2143FAE70000000000202800002040
:102E7000FFB581B00A9E0C9C0F460B9D0094049BED
:102E8000039A0198FFF74AFF2B46324600940499B3
:102E90000398FFF743FF3B46009429463046019ACA
:102EA000FFF73CFF05B0F0BD10B5002806D0FF22AB
:102EB000012189020248FDF787F910BD0022F7E7DA
:102EC0002800002010B501F0A1FA5A4B0122782108
:102ED0005948FEF7B7FB002801D0002010BD574825
:102EE000401EFDD1AE220021782001F095FA20226B
:102EF0000021782001F090FA10220021782001F0C2
:102F00008BFAB0220021782001F086FAC822002135
:102F1000782001F081FA00221146782001F07CFA35
:102F200010220021782001F077FA21220021782058
:102F300001F072FA00221146782001F06DFA7F222A
:102F40000021782001F068FA40220021782001F069
:102F500063FA81220021782001F05EFA78220021B4
:102F6000104601F059FAA1220021782001F054FA0C
:102F7000A6220021782001F04FFAA8220021782013
:102F800001F04AFA3F220021782001F045FAA422FC
:102F90000021782001F040FAD3220021782001F0AE
:102FA0003BFA00221146782001F036FAD5220021A2
:102FB000782001F031FAF0220021782001F02CFA7B
:102FC000D9220021782001F027FA2222002178203E
:102FD00001F022FADA220021782001F01DFA1222F3
:102FE0000021782001F018FADB220021782001F07E
:102FF00013FA20220021782001F00EFA8D22002100
:10300000782001F009FA14220021782001F004FA56
:10301000AF220021782001F0FFF90020FFF744FFE4
:1030200000F010F806480021018041800121417123
:10303000084610BD204E000028040020C2090000F0
:103040000000002070B50F4D00242046B030C2B201
:103050000021782001F0E0F900221146782001F0EB
:10306000DBF910220021782001F0D6F9E0014219A5
:1030700080234021782001F0DFF9641CE4B2082CA1
:10308000E3D370BD2800002070470000FFB593B067
:1030900014461D4640220E4902A81E9F1D9EFDF7A4
:1030A00081F81C980990042005950D96002F00903A
:1030B00008D00423019402A8149A1399FFF74AFD3B
:1030C00017B0F0BD0190234602A9149A1398F5E7B2
:1030D0005045000810B5FEF7FDFB10BD10B59CB0C3
:1030E00038216846FDF777F8142117A8FDF773F823
:1030F00024210EA8FDF76FF8154801680322D202BB
:103100009143C214891801600220009001210A90A5
:10311000039140040C900001102100240D900B94A9
:1031200004916846FEF702FE0F20179003201890C6
:1031300019941A9401211B9417A8FEF7E5FC0A20A4
:103140000E90129414940EA8FEF712FC1CB010BD41
:103150000070004010480168821511430160C16889
:103160000E4A1140C16001680D4A1140016081683A
:10317000490849008160016801229204914301607D
:10318000C168FD2212049143C1600021016105491B
:10319000C003886070470000001002400C40FF88A8
:1031A000F6FFF6FE00ED00E010B50248FFF7D1F89B
:1031B00010BD00007404002070B5026801239B0755
:1031C000114C124D984203D0A04201D0A84203D125
:1031D0007026B2434E683243984203D0A04201D0D9
:1031E000A84204D103231B029A43CB681A438023CD
:1031F0009A430B691A4302608A68C2620968816255
:103200000121416170BD000000080140001401402F
:1032100030B58468FF252D021B021343AC430B43DA
:103220002343836030BD826870239A430A43072199
:103230000A438260704730B5036A046A6408640018
:1032400004628469F025AC43120122430A24A3439B
:103250000B438261036230BD30B5036A1024A3437F
:1032600003628469036A0F252D031203AC432243D2
:10327000A024A343090119438261016230BD10B546
:10328000818CC90707D001684A6801235B049A430F
:10329000836A1A434A60818C890707D501684A68A6
:1032A00001231B049A43C36A1A434A60818C49076D
:1032B00007D501684A6801239B049A43036B1A43AC
:1032C0004A60818C090707D501684A680123DB033E
:1032D0009A43436B1A434A60818CC90607D502683A
:1032E000916801231B039943836B19439160818C7F
:1032F000890607D501688A6801235B039A43C36B7B
:103300001A438A60818C490612D503685A680121E4
:103310000905046C8A4322435A60026C8A4207D131
:103320000268516803235B059943436C194351605C
:10333000818C090607D501684A680123DB04806C8B
:103340009A4302434A6010BDF8B500260446C6679A
:10335000FEF7CEF8054620680068124F000709D531
:1033600001212B46002249052046009700F0A2F9D2
:1033700000280DD12068006840070BD501212B469D
:10338000002289052046009700F094F9002801D01A
:103390000320F8BD20206067A067603426740020F9
:1033A000F8BD0000FFFFFF0110B5806A0022014652
:1033B00040314A834A82FFF764F810BD01680A6809
:1033C000FF2321339A430A6001688A685208520039
:1033D0008A602021816700210166704710B501468F
:1033E00040318B8B846F0268222C04D090690821B5
:1033F0000843906110BD526A446D1A402280426DAC
:10340000921C42654A8B521E4A83498B0029F1D196
:1034100001680A68FF2321339A430A6001688A68B9
:10342000520852008A602021816700210166FFF75F
:1034300095F910BD10B5014640318B8B846F026841
:10344000222C04D0906908210843906110BD526A73
:103450001A40436D1A70426D521C42654A8B521ECF
:103460004A83498B0029F1D101680A68FF2321337F
:103470009A430A6001688A68520852008A602021D3
:10348000816700210166FFF769F910BDF8B50446B0
:103490002669A268E76932436669102000253E4329
:1034A0002368324378491E68784F3E4016431E60B9
:1034B00023685A6803263603B243E66832435A60EB
:1034C0002368A2698B4201D0266A32439E680B278B
:1034D0003F02BE4316439E606D4E23686D4AB34261
:1034E0000CD1D2689207920F06D0012A38D0022A56
:1034F00034D0032A20D11EE001201DE0664EB342E5
:103500000AD1D2680C26324026D0042A28D0082AB4
:1035100024D00C2A10D10EE08B420DD1D6680322A4
:103520009202164018D001229202B61A18D0B61A8A
:1035300014D0964200D10820564A0126403A574FEF
:10354000F6038B4236D100280CD002280DD0042877
:1035500012D008281FD11CE00020EDE70220EBE785
:103560000420E9E7FEF786FB08E01068C00601D5F5
:10357000384605E04A4803E0FEF79CFB002873D07C
:10358000626851005118814205D81103814202D36B
:1035900003E03046F4E7012566E0010E060250081C
:1035A000002330185941FCF7CDFD03210902411ACF
:1035B0003C4A55E0E169B14232D1030000F0E4F841
:1035C00009070A0D06250606062B0600E3E7FEF7A7
:1035D00051FB1CE0FEF75EFB19E010686168C00655
:1035E00002D54808304A01E0304A48088018FCF704
:1035F0007FFD80B201462E4A10399142CBD8511C32
:1036000001400007400F08432CE0FEF753FB6168C0
:1036100040004A08EAE76168012248081204E5E729
:10362000030000F0B1F809070A0D06260606062C6D
:103630000600B0E7FEF71EFB1DE0FEF72BFB1AE0CD
:1036400010686168C00602D54808C01902E0144835
:103650004A081018FCF74CFD80B20146144A103994
:10366000914298D82168C86000202066606628468C
:10367000F8BDFEF71FFB61684A088018EAE7616839
:1036800048088019E6E7000000480040F369FFEFB2
:1036900000380140401002400044004000093D0055
:1036A0000024F400FFFC0F0000127A000048E8013B
:1036B000EFFF0000FFB581B017460E4604460A9D95
:1036C00009E0681C07D0FDF713FF0499401AA842CF
:1036D0000CD8002D0AD02068C1693046884318D024
:1036E0000020B842EDD0002005B0F0BD2068016890
:1036F000FF22A13291430160206881684908490096
:10370000816020206067A06700206034207403205F
:10371000EAE70120E5E7000010B50248FEF7B2FE37
:1037200010BD0000B00400202021020C01D01021A7
:103730001046020A01D010460839020901D010468D
:10374000091F820801D01046891E420801D0881E38
:103750007047081A7047F0B4040C8BB2264682B248
:103760005E430D0C1046370C584336048019002177
:10377000794116466E43370C360480197941264646
:103780006E438919F0BC704730B47446641E2578C6
:10379000641CAB4200D21D46635D5B00E31830BC85
:1037A000184700004900CA020243100000D004205C
:1037B0004A0D01D001221043044A490D914201D122
:1037C00002210843012800D105207047FF070000AF
:1037D000F7B596B014460021A160D1601799099100
:1037E0004D00CD496D088D4205DC17996160206060
:1037F000002019B0F0BDC949C94E8D4238DAD3272F
:1038000009997F050029C74A1799334617DDFDF747
:103810003DF8B54206D0C44AC44BFDF737F86160A5
:10382000206009E03A46C14BFDF730F8C04AC14B71
:10383000FDF72CF861602060012019B0F0BDFCF7A5
:1038400081FFB54206D0B84AB84BFCF77BFF6160F8
:10385000206009E03A46B54BFCF774FFB44AB54B1B
:10386000FCF770FF616020600020C04319B0F0BD1C
:10387000B1498D42179977DC490049080746AF4A9C
:10388000AF4B0491FDF710F80022AE4BFCF75AFF46
:10389000FDF780FC0A90FDF75BFCA24A33460391DA
:1038A0000290FDF701F83A46049BFCF7F5FF064647
:1038B0000F469D4A9D4B03990298FCF7F5FF2A0D90
:1038C00001250C9232463B46FCF7E6FF6160206022
:1038D000032D39D04800410D0C98401A6901691830
:1038E0001139814230DA98492801794408960D90BF
:1038F000081804974368026803990298FCF7D4FFFC
:1039000002460B460791069004990898FCF7BEFF03
:1039100006460F46049B089AFCF7BEFF079B069AD3
:10392000FCF7B4FF05918949049079440D9840183B
:10393000C368826803990298FCF7B6FF059B049A56
:10394000FCF7A4FF6D1CBDE70998002809DA0122E5
:103950006068D207504060600A9819B04042F0BDDC
:1039600002E00A9819B0F0BD09030122090B120503
:103970000E9089181798109140007549400D401815
:103980004111C006C00E0D9113902021081A149009
:103990000020069005250790139800280D980CD05C
:1039A000401982006B487844875813998F4010184B
:1039B00041681498C1400F4304E0401981006648F3
:1039C0007844475810993846FFF7C5FE06460A91D5
:1039D00038460E99FFF7BFFE8A190A9B8A4201D228
:1039E000012100E00021C9188C46AF006946791812
:1039F0008B684E68C318834201D2012000E000208A
:103A000096193618002802D0964202D903E0964251
:103A100001D2012000E00020624612184E60684684
:103A20008B60C25128466D1E0028B5DC012102982A
:103A300049074018800F1390029805998000039E53
:103A4000049D0B91FDF784FB074630460891FDF776
:103A500093FB1D22D243FDF765FB10900F91284682
:103A6000FDF78AFB3D22D243FDF75CFB0E900D91E2
:103A70000B98FDF781FB5D22D243FDF753FB0B91C1
:103A80000C900D9B0E9AFCF75DFE0F9B109AFCF7B5
:103A900059FE3A46089BFCF755FE00250E463A466D
:103AA0002846089BFCF7F2FE0F9B109AFCF7EEFEEF
:103AB0000D9B0E9AFCF7EAFE0B9B0C9AFCF7ECFEB2
:103AC000264A274BFCF7F0FE07460D91254A264B68
:103AD00031462846FCF7E8FE3A460D9BFCF732FEDD
:103AE0000F4615220C9092061D4B31462846FCF7D6
:103AF000DBFE3B460C9AFCF725FE179A002A05DAF6
:103B0000139A524213920122D20751406160206001
:103B1000139819B0F0BD0000FB21E93F7CD90240A9
:103B2000FB21F93F000040543163621A61B4D03D7B
:103B30007370032E8A19A33BFB21394183C8C96DD9
:103B4000305FE43F0000E03F3A0D0000FA0C000057
:103B50000BFCFFFFAE0C0000940C0000182D445429
:103B6000FB21F93D3326A611460B113CF0B51FB4DD
:103B70004E00F9207608800584B00F46864204DAAC
:103B80000498FDF707FB002838D0049A3B461046FE
:103B90001946FCF789FE044602462C480D460B46A2
:103BA0000621784400F05CF822462B46FCF77CFEA8
:103BB000019100903946079B069A0498FCF774FE21
:103BC0000746029120462946019B009AFCF76CFEAD
:103BD0003A46029BFCF75AFE074600220091D24368
:103BE00020462946FDF79EFA194A96420ADA3A46D5
:103BF000009BFCF74BFE0022164B23E000201549EA
:103C000009B0F0BD144A964202DD0024134D03E0D2
:103C100001225205B51A002422462B46FCF736FE37
:103C20000646019122462B4600200A49FCF72EFE4B
:103C30000D4604463A463046009B0199FCF726FEA5
:103C400022462B46FCF728FE09B0F0BD520A0000C0
:103C50003333D33F0000F03F0000E93F0000D23F84
:103C6000F8B504464F1EC8000838211815461E46F0
:103C7000086849683A4606239A4310D02A463346D4
:103C8000FCF712FE3A46D200083AA3181A687F1EC3
:103C90005B68FCF757FD06223B469343EED1022FAB
:103CA00023D0042F11D0062F2FD12A463346FCF7FC
:103CB000FBFDE36AA26AFCF745FD2A463346FCF7A2
:103CC000F3FD636A226AFCF73DFD2A463346FCF7A2
:103CD000EBFDE369A269FCF735FD2A463346FCF7A4
:103CE000E3FD63692269FCF72DFD2A463346FCF7A4
:103CF000DBFDE368A268FCF725FD2A463346FCF7A6
:103D0000D3FD63682268FCF71DFDF8BDF0B51FB454
:103D1000054648000C46F9214008890586B08842CE
:103D20000BDA28462146FFF73DFD042801D100F0BB
:103D300071F8284621460BB0F0BD2A4623461046AE
:103D40001946FCF7B1FD06460F462A462346FCF706
:103D5000ABFD00902548019132463B460521784451
:103D6000FFF77EFF029010980391002829D0204A87
:103D7000204B01990098FCF797FD04900591684647
:103D80000FC8FCF791FD002201910090D2430999E0
:103D90000898FDF7C7F9019B009AFCF777FD3246BA
:103DA0003B46FCF781FD099B089AFCF76FFD059BDC
:103DB000049AFCF76BFD2A462346FCF76DFD0BB019
:103DC000F0BD0B4630463946029AFCF76DFD084AB5
:103DD000084BFCF7B7FC019B009AFCF765FD2A46EF
:103DE0002346FCF7AFFC0BB0F0BD00008E090000CD
:103DF000495555555555C5BF10B50122FDF792F9E6
:103E000010BD002210B5134610461146FCF7B4FD54
:103E100010BD0000034A10B500201107FDF782F91C
:103E200010BD000001FDFFFF02E008C8121F08C11D
:103E3000002AFAD170477047002001E001C1121F2B
:103E4000002AFBD17047000001490860704700005C
:103E50002400002030380A2801D2012070470020B9
:103E60007047000000B54A00224B520887B09A42C2
:103E700002DC0022134625E01F4B9A4208D100289D
:103E800008D10120FFF7E0FFFFF7BBFF07B000BD3F
:103E90009A4203DBFFF7B0FF07B000BD02AAFFF7AD
:103EA00097FC8107890F0BD0012001290ED0022930
:103EB00016D0009002A80FC8FFF728FF07B000BD7A
:103EC00002A80FC8FFF752FE07B000BD009002A87D
:103ED0000FC8FFF71BFF0122D207514007B000BDFA
:103EE00002A80FC8FFF742FE0122D207514007B0D7
:103EF00000BD0000FB21E93F0000F07F10B5002865
:103F000023D0124B0022001F196803E0814203D81E
:103F10000A4649680029F9D1002A0AD01368841A90
:103F20009C4204D1006818181060104602E05060EE
:103F300000E01860002907D002680B1A934203D1F1
:103F40000B68D21802604968416010BD1C00002057
:103F5000FFB0A5B0FDF7C6FCFFF7C0F8FEF752FDB5
:103F6000FEF7A6FDFEF7CEFDFEF782FDFEF7AAFFE7
:103F7000002805D164231022CAA1CF48FEF706FC11
:103F800000F07EFA0120FEF78FFFFFF75BF8FF24B9
:103F9000F5342046FDF7BDF90020FEF785FFFFF759
:103FA00051F82046FDF7B5F9C44EC54D4022C5492C
:103FB00017A82B962C95FCF7F5F8C3491791C34821
:103FC00000247F272695FF051C912290A10033A88D
:103FD00009188031641C0F610C2CF7DBB9494022B1
:103FE000403107A8FCF7DEF831462846FCF727FBEE
:103FF00007900C900120C007464016951296B44DCC
:104000000026AE70312020A9487701202E706870FC
:104010006E60A949A86002468031A7482896FEF73D
:104020003BFBAB4D28780028FBD02E70A8780028E9
:104030000BD0012833D002287ED00328F1D19E482E
:1040400080300078FF2878D0CFE09B48803000781F
:1040500030380300FFF798FB05050B11171E04000D
:10406000DFE72220A8600120A870302067E03E2012
:10407000A8600220A870312061E00020FEF714FF44
:10408000AE7032205BE00220A8600320A8700024FC
:10409000332054E0FEF7D6FFAE7034204FE028A85E
:1040A00000902AAA29A98448029201912CAB2BAA3C
:1040B00088A18030FCF79AF8002407A9E017800F48
:1040C0000019821080088000201A12015218800006
:1040D0001018641C0660102CF0DB2B992C980091B2
:1040E0000190FCF7ACFA0C90079001210098C907E9
:1040F0004840159712900198169028980090002338
:10410000042217A9019607A8FEF7A4FD299800909C
:104110000123042207A9019617A8FEF79BFD2A9800
:1041200000900223042217A9019607A8FEF792FD2A
:104130000120A860AE7001E00BE051E0612020A9F1
:1041400048770A2327A9012201315B48FEF71EFBAD
:1041500067E731AB069330AA2EA92DA803AB07C39E
:1041600029A800902FAA2AA953480292019128ABAE
:1041700032AA5CA18030FCF739F82D986A462E9956
:1041800043C2042207A917A82F9BFEF77FFF2A9896
:1041900000900223042293A9019607A8FEF75AFD76
:1041A000299800900123042207A9019693A8FEF7FD
:1041B00051FD289800900023042293A9019607A896
:1041C000FEF748FD329B0093042207A993A80296AC
:1041D0000193FEF71BFD0120A860AE706220AEE7E0
:1041E000354880304078FF2842D031980546FCF7AA
:1041F0005BFC0191009029463098FCF720FA0546B7
:104200002D488030008840BAFCF72EFC2946FCF788
:104210001EFAFCF749FC0022394BFCF7ADFB019B71
:10422000009AFCF78FFAFCF753FC05460321204661
:10423000FBF774FF3022514333AA89188000641CB5
:104240000D50242C84D104200C21034601910090B0
:10425000002463AA33A907A8FEF77CFC0C221146B0
:1042600063A8FCF7D9FF662020A94877012369E7F6
:10427000002C12D004200C2103460191009063AA67
:1042800033A907A8FEF766FC03212046FBF746FF8B
:10429000C2B20C2163A8FCF7BFFF0120A860AE707A
:1042A00065204CE74661696C20636F6E6E656374D0
:1042B0002021212100000000B004002000007042F5
:1042C0000000FA43D04400080000DC43000070C244
:1042D0000800002025662F25662F25662C25662CD4
:1042E0002566000025662F25662C25662C25662F61
:1042F00025662C25662C25662F25662C2566000054
:10430000C0FFEF40F0B50B30C108C900144F0026C4
:10431000144A0FE003688B420BD38B4205D95C1A19
:104320004318456830C3083B00E04368136002C08F
:1043300004E0021D10680028ECD13046002803D1AB
:104340003868002801D00020F0BD064A06481060F9
:10435000064A121AD208D20044C001203860D7E7BA
:10436000200000201C0000207C0500207807002091
:1043700000B54A00234B520887B09A4203DC002262
:104380001346009229E0204B9A4208D1002808D118
:104390000120FFF759FDFFF734FD07B000BD9A4239
:1043A00003DBFFF729FD07B000BD02AAFFF710FAF3
:1043B0008107890F012000290CD0012911D0022981
:1043C00015D002A80FC8FFF7D1FB0122D207514038
:1043D00007B000BD009002A80FC8FFF797FC07B018
:1043E00000BD02A80FC8FFF7C1FB07B000BD0090D9
:1043F00002A80FC8FFF78AFC0122D207514007B07C
:1044000000BD0000FB21E93F0000F07F0148401E95
:10441000FDD1704790D003001CB56B4619715A71DD
:104420000A2100910146022301AA0248FDF79AF9E8
:104430001CBD000028040020FFB581B01C461646B4
:104440000F46581CFFF75EFF05460770012005E088
:1044500031182039C97F2954401CC0B2A042F7D975
:104460000A20009023462A4604480199FDF77AF96C
:104470002846FFF743FD05B0F0BD000028040020EA
:1044800070B500242046B030C2B200217820FFF77A
:10449000C3FF212200217820FFF7BEFF0022114632
:1044A0007820FFF7B9FF7F2200217820FFF7B4FFC3
:1044B0000025002240217820FFF7AEFF6D1CEDB2F1
:1044C000802DF6D3641CE4B2082CDBD370BD000051
:1044D00000000000000000000000000000000000DC
:1044E00000000000000000000000000000000000CC
:1044F00000000000000000000000000000000000BC
:1045000000000000000000000000803F00000000EC
:10451000000000000000000000000000000000009B
:10452000000000000000000000000000000000008B
:10453000000000000000000000000000000000007B
:1045400000000000000000000000803F00000000AC
:104550000000803F0000000000000000000000009C
:10456000000000000000803F00000000000000008C
:1045700000000000000000000000803F000000007C
:104580000000000000000000000000000000803F6C
:10459000000000000000000000000000000000001B
:1045A000000000000000000000000000000000000B
:1045B00000000000000000000000000000000000FB
:1045C0000000000000000000000000000000803F2C
:1045D00000000000000000000102030406070809B3
:1045E000030406080C10182030000000000102032C
:1045F00004000000000000004C5555555555A53FDE
:104600007751C1166CC156BF9015CB19A001FA3E67
:10461000AD529C804F7E92BEC4B1B4BD9EEE213E91
:10462000D43888BEE9FAA8BD00004054FB21F93F08
:104630003163621A61B4D03D0000601A61B4D03DAC
:104640007370032E8A19A33B0000002E8A19A33B26
:10465000C14920259A837B3900000000000000003A
:104660006E83F9A22915444ED15727FCC0DD34F5DD
:10467000999562DB4190433CAB6351FE61C5BBDE63
:104680003A6E24B7E0D24D42EA2E49061C92D10977
:104690001CEB1DFE3EA729B1F53582E88444BB2EF4
:1046A00026709CE9417E5FB439D69139F439538341
:1046B0008B5F849C3B28F9BDFF97F81F0F9805DEA0
:1046C0008B112FEF1F6D0A5ACF7E366DB709CB279E
:1046D000663F464F2DEA5F9EC7BA27757BF1E5EB33
:1046E000F739073DEA92528AB15FFB6B085D8D1F77
:1046F000A6F810111111813FD561C119A0012ABF7F
:104700007DFEB157E31DC73EEB9C2B8AE6E55ABE02
:104710007CD5CF5A3AD9E53DDDDDDDDDDCBBBBDD47
:10472000DDDDDDDDDDDDDDDD988888888888888851
:104730007777777777888888855555566666666671
:104740006666666666688888833333322222222250
:10475000222222222228888D78470008000000208B
:1047600028000000283E0008A0470008280000207C
:10477000500B0000383E0008000000000000000060
:104780000000000000000000000000000000000029
:1047900000002000000000000000000000000000F9
:04000005080000C12E
:00000001FF
